{
  "contractName": "EtherWills",
  "abi": [
    {
      "inputs": [
        {
          "internalType": "address payable",
          "name": "_testor",
          "type": "address"
        },
        {
          "internalType": "address payable[]",
          "name": "_beneficiary",
          "type": "address[]"
        },
        {
          "internalType": "uint256[]",
          "name": "_share",
          "type": "uint256[]"
        },
        {
          "internalType": "bytes32",
          "name": "json",
          "type": "bytes32"
        },
        {
          "internalType": "bytes32",
          "name": "_secretKey",
          "type": "bytes32"
        },
        {
          "internalType": "uint256",
          "name": "_periodCheckIn",
          "type": "uint256"
        }
      ],
      "payable": false,
      "stateMutability": "nonpayable",
      "type": "constructor"
    },
    {
      "constant": true,
      "inputs": [],
      "name": "getCode",
      "outputs": [
        {
          "internalType": "bytes6",
          "name": "",
          "type": "bytes6"
        }
      ],
      "payable": false,
      "stateMutability": "view",
      "type": "function"
    },
    {
      "constant": false,
      "inputs": [],
      "name": "deposit",
      "outputs": [],
      "payable": true,
      "stateMutability": "payable",
      "type": "function"
    },
    {
      "constant": false,
      "inputs": [
        {
          "internalType": "bytes6",
          "name": "_code",
          "type": "bytes6"
        }
      ],
      "name": "executeWill",
      "outputs": [],
      "payable": false,
      "stateMutability": "nonpayable",
      "type": "function"
    },
    {
      "constant": true,
      "inputs": [],
      "name": "WillDetails",
      "outputs": [
        {
          "internalType": "bytes32",
          "name": "",
          "type": "bytes32"
        },
        {
          "internalType": "bytes32",
          "name": "",
          "type": "bytes32"
        },
        {
          "internalType": "uint256",
          "name": "",
          "type": "uint256"
        }
      ],
      "payable": false,
      "stateMutability": "view",
      "type": "function"
    },
    {
      "constant": true,
      "inputs": [],
      "name": "executed",
      "outputs": [
        {
          "internalType": "bool",
          "name": "",
          "type": "bool"
        }
      ],
      "payable": false,
      "stateMutability": "view",
      "type": "function"
    },
    {
      "constant": false,
      "inputs": [
        {
          "internalType": "bytes6",
          "name": "_code",
          "type": "bytes6"
        }
      ],
      "name": "deleteWill",
      "outputs": [],
      "payable": false,
      "stateMutability": "nonpayable",
      "type": "function"
    },
    {
      "constant": true,
      "inputs": [],
      "name": "checkExecutable",
      "outputs": [
        {
          "internalType": "bool",
          "name": "",
          "type": "bool"
        }
      ],
      "payable": false,
      "stateMutability": "view",
      "type": "function"
    },
    {
      "constant": true,
      "inputs": [],
      "name": "queryWill",
      "outputs": [
        {
          "internalType": "address",
          "name": "",
          "type": "address"
        },
        {
          "internalType": "uint256[]",
          "name": "",
          "type": "uint256[]"
        },
        {
          "internalType": "address payable[]",
          "name": "",
          "type": "address[]"
        },
        {
          "internalType": "uint256",
          "name": "",
          "type": "uint256"
        },
        {
          "internalType": "bytes6",
          "name": "",
          "type": "bytes6"
        },
        {
          "internalType": "uint256",
          "name": "",
          "type": "uint256"
        },
        {
          "internalType": "uint256",
          "name": "",
          "type": "uint256"
        }
      ],
      "payable": false,
      "stateMutability": "view",
      "type": "function"
    }
  ],
  "bytecode": "0x60806040526000600560006101000a81548160ff021916908315150217905550606460065560006009556000600a556000600b553480156200004057600080fd5b506040516200193b3803806200193b833981810160405260c08110156200006657600080fd5b8101908080519060200190929190805160405193929190846401000000008211156200009157600080fd5b83820191506020820185811115620000a857600080fd5b8251866020820283011164010000000082111715620000c657600080fd5b8083526020830192505050908051906020019060200280838360005b83811015620000ff578082015181840152602081019050620000e2565b50505050905001604052602001805160405193929190846401000000008211156200012957600080fd5b838201915060208201858111156200014057600080fd5b82518660208202830111640100000000821117156200015e57600080fd5b8083526020830192505050908051906020019060200280838360005b83811015620001975780820151818401526020810190506200017a565b50505050905001604052602001805190602001909291908051906020019092919080519060200190929190505050856000806101000a81548173ffffffffffffffffffffffffffffffffffffffff021916908373ffffffffffffffffffffffffffffffffffffffff1602179055506200021a85858585856200022660201b60201c565b50505050505062000801565b835185511462000282576040517f08c379a000000000000000000000000000000000000000000000000000000000815260040180806020018281038252602f8152602001806200190c602f913960400191505060405180910390fd5b60646200029585620005b460201b60201c565b14620002ed576040517f08c379a0000000000000000000000000000000000000000000000000000000008152600401808060200182810382526038815260200180620018d46038913960400191505060405180910390fd5b60001515600560009054906101000a900460ff1615151462000377576040517f08c379a00000000000000000000000000000000000000000000000000000000081526004018080602001828103825260148152602001807f57696c6c20616c7265616479206372656174656400000000000000000000000081525060200191505060405180910390fd5b60008551905060008090505b818110156200042b57620003b18782815181106200039d57fe5b60200260200101516200060260201b60201c565b858181518110620003be57fe5b602002602001015160036000898481518110620003d757fe5b602002602001015173ffffffffffffffffffffffffffffffffffffffff1673ffffffffffffffffffffffffffffffffffffffff16815260200190815260200160002081905550808060010191505062000383565b5084600290805190602001906200044492919062000787565b506001600560006101000a81548160ff021916908315150217905550826008819055508360078190555060016009540160098190555042600c8190555081600d8190555060016002600854600754600d5460405160200180806020018060200186815260200185815260200184815260200183810383528881815481526020019150805480156200052b57602002820191906000526020600020905b8160009054906101000a900473ffffffffffffffffffffffffffffffffffffffff1673ffffffffffffffffffffffffffffffffffffffff1681526020019060010190808311620004e0575b505083810382528781815481526020019150805480156200056c57602002820191906000526020600020905b81548152602001906001019080831162000557575b505097505050505050505060405160208183030381529060405280519060200120600560016101000a81548165ffffffffffff021916908360d01c0217905550505050505050565b6000806000905060008351905060008090505b81811015620005f757848181518110620005dd57fe5b6020026020010151830192508080600101915050620005c7565b508192505050919050565b8073ffffffffffffffffffffffffffffffffffffffff166000809054906101000a900473ffffffffffffffffffffffffffffffffffffffff1673ffffffffffffffffffffffffffffffffffffffff161415620006c6576040517f08c379a000000000000000000000000000000000000000000000000000000000815260040180806020018281038252601c8152602001807f746573746f722063616e6e6f742062652062656e65666963696172790000000081525060200191505060405180910390fd5b60018190806001815401808255809150509060018203906000526020600020016000909192909190916101000a81548173ffffffffffffffffffffffffffffffffffffffff021916908373ffffffffffffffffffffffffffffffffffffffff160217905550506000600460008373ffffffffffffffffffffffffffffffffffffffff1673ffffffffffffffffffffffffffffffffffffffff16815260200190815260200160002060006101000a81548160ff02191690831515021790555050565b828054828255906000526020600020908101928215620007c6579160200282015b82811115620007c5578251825591602001919060010190620007a8565b5b509050620007d59190620007d9565b5090565b620007fe91905b80821115620007fa576000816000905550600101620007e0565b5090565b90565b6110c380620008116000396000f3fe60806040526004361061007b5760003560e01c806394fe91a71161004e57806394fe91a71461029c578063bd385916146102cb578063d0e30db014610304578063ea8796341461030e5761007b565b806331a38c89146100805780633aba4f87146100af5780634a2cbf47146101075780636e34217e14610244575b600080fd5b34801561008c57600080fd5b50610095610373565b604051808215151515815260200191505060405180910390f35b3480156100bb57600080fd5b50610105600480360360208110156100d257600080fd5b81019080803579ffffffffffffffffffffffffffffffffffffffffffffffffffff1916906020019092919050505061047c565b005b34801561011357600080fd5b5061011c6105f8565b604051808873ffffffffffffffffffffffffffffffffffffffff1673ffffffffffffffffffffffffffffffffffffffff16815260200180602001806020018781526020018679ffffffffffffffffffffffffffffffffffffffffffffffffffff191679ffffffffffffffffffffffffffffffffffffffffffffffffffff19168152602001858152602001848152602001838103835289818151815260200191508051906020019060200280838360005b838110156101e75780820151818401526020810190506101cc565b50505050905001838103825288818151815260200191508051906020019060200280838360005b8381101561022957808201518184015260208101905061020e565b50505050905001995050505050505050505060405180910390f35b34801561025057600080fd5b5061029a6004803603602081101561026757600080fd5b81019080803579ffffffffffffffffffffffffffffffffffffffffffffffffffff191690602001909291905050506107ee565b005b3480156102a857600080fd5b506102b1610a83565b604051808215151515815260200191505060405180910390f35b3480156102d757600080fd5b506102e0610b4f565b60405180848152602001838152602001828152602001935050505060405180910390f35b61030c610d20565b005b34801561031a57600080fd5b50610323610eb3565b604051808279ffffffffffffffffffffffffffffffffffffffffffffffffffff191679ffffffffffffffffffffffffffffffffffffffffffffffffffff1916815260200191505060405180910390f35b600080600360003373ffffffffffffffffffffffffffffffffffffffff1673ffffffffffffffffffffffffffffffffffffffff16815260200190815260200160002054141561042a576040517f08c379a000000000000000000000000000000000000000000000000000000000815260040180806020018281038252601d8152602001807f596f7520617265206e6f742070617274206f6620746869732077696c6c00000081525060200191505060405180910390fd5b600460003373ffffffffffffffffffffffffffffffffffffffff1673ffffffffffffffffffffffffffffffffffffffff16815260200190815260200160002060009054906101000a900460ff16905090565b6000809054906101000a900473ffffffffffffffffffffffffffffffffffffffff1673ffffffffffffffffffffffffffffffffffffffff163373ffffffffffffffffffffffffffffffffffffffff1614610521576040517f08c379a000000000000000000000000000000000000000000000000000000000815260040180806020018281038252602c815260200180611035602c913960400191505060405180910390fd5b600560019054906101000a900460d01b79ffffffffffffffffffffffffffffffffffffffffffffffffffff19168179ffffffffffffffffffffffffffffffffffffffffffffffffffff1916146105df576040517f08c379a000000000000000000000000000000000000000000000000000000000815260040180806020018281038252601f8152602001807f596f75206861766520656e7465726564207468652077726f6e6720636f64650081525060200191505060405180910390fd5b3373ffffffffffffffffffffffffffffffffffffffff16ff5b60006060806000806000806000809054906101000a900473ffffffffffffffffffffffffffffffffffffffff1673ffffffffffffffffffffffffffffffffffffffff163373ffffffffffffffffffffffffffffffffffffffff16146106a8576040517f08c379a000000000000000000000000000000000000000000000000000000000815260040180806020018281038252602c815260200180611035602c913960400191505060405180910390fd5b606060028054806020026020016040519081016040528092919081815260200182805480156106f657602002820191906000526020600020905b8154815260200190600101908083116106e2575b505050505090506060600180548060200260200160405190810160405280929190818152602001828054801561078157602002820191906000526020600020905b8160009054906101000a900473ffffffffffffffffffffffffffffffffffffffff1673ffffffffffffffffffffffffffffffffffffffff1681526020019060010190808311610737575b505050505090506000809054906101000a900473ffffffffffffffffffffffffffffffffffffffff16828242603c600d546009540202600c540103600560019054906101000a900460d01b600954600d548696509850985098509850985098509850505090919293949596565b600560019054906101000a900460d01b79ffffffffffffffffffffffffffffffffffffffffffffffffffff19168179ffffffffffffffffffffffffffffffffffffffffffffffffffff1916146108ac576040517f08c379a000000000000000000000000000000000000000000000000000000000815260040180806020018281038252600a8152602001807f57726f6e6720636f64650000000000000000000000000000000000000000000081525060200191505060405180910390fd5b6000600360003373ffffffffffffffffffffffffffffffffffffffff1673ffffffffffffffffffffffffffffffffffffffff168152602001908152602001600020541415610962576040517f08c379a000000000000000000000000000000000000000000000000000000000815260040180806020018281038252601d8152602001807f596f7520617265206e6f742070617274206f6620746869732077696c6c00000081525060200191505060405180910390fd5b60001515600460003373ffffffffffffffffffffffffffffffffffffffff1673ffffffffffffffffffffffffffffffffffffffff16815260200190815260200160002060009054906101000a900460ff16151514610a28576040517f08c379a00000000000000000000000000000000000000000000000000000000081526004018080602001828103825260158152602001807f57696c6c20616c7265616479206578656375746564000000000000000000000081525060200191505060405180910390fd5b6001600460003373ffffffffffffffffffffffffffffffffffffffff1673ffffffffffffffffffffffffffffffffffffffff16815260200190815260200160002060006101000a81548160ff02191690831515021790555050565b600080600360003373ffffffffffffffffffffffffffffffffffffffff1673ffffffffffffffffffffffffffffffffffffffff168152602001908152602001600020541415610b3a576040517f08c379a000000000000000000000000000000000000000000000000000000000815260040180806020018281038252601d8152602001807f596f7520617265206e6f742070617274206f6620746869732077696c6c00000081525060200191505060405180910390fd5b42603c600d546009540202600c540110905090565b600080600080600360003373ffffffffffffffffffffffffffffffffffffffff1673ffffffffffffffffffffffffffffffffffffffff168152602001908152602001600020541415610c09576040517f08c379a000000000000000000000000000000000000000000000000000000000815260040180806020018281038252601d8152602001807f596f7520617265206e6f742070617274206f6620746869732077696c6c00000081525060200191505060405180910390fd5b60011515600460003373ffffffffffffffffffffffffffffffffffffffff1673ffffffffffffffffffffffffffffffffffffffff16815260200190815260200160002060009054906101000a900460ff16151514610ccf576040517f08c379a00000000000000000000000000000000000000000000000000000000081526004018080602001828103825260158152602001807f57696c6c206e6f7420796574206578656375746564000000000000000000000081525060200191505060405180910390fd5b600754600854600360003373ffffffffffffffffffffffffffffffffffffffff1673ffffffffffffffffffffffffffffffffffffffff16815260200190815260200160002054925092509250909192565b6000809054906101000a900473ffffffffffffffffffffffffffffffffffffffff1673ffffffffffffffffffffffffffffffffffffffff163373ffffffffffffffffffffffffffffffffffffffff1614610dc5576040517f08c379a000000000000000000000000000000000000000000000000000000000815260040180806020018281038252602c815260200180611035602c913960400191505060405180910390fd5b600a54600b54014211610e23576040517f08c379a000000000000000000000000000000000000000000000000000000000815260040180806020018281038252602e815260200180611061602e913960400191505060405180910390fd5b603c600d546009540202600c54014210610e88576040517f08c379a000000000000000000000000000000000000000000000000000000000815260040180806020018281038252602981526020018061100c6029913960400191505060405180910390fd5b42600a8190555042603c600d546009540202600c540103600b81905550600160095401600981905550565b600080600360003373ffffffffffffffffffffffffffffffffffffffff1673ffffffffffffffffffffffffffffffffffffffff168152602001908152602001600020541415610f6a576040517f08c379a000000000000000000000000000000000000000000000000000000000815260040180806020018281038252601d8152602001807f596f7520617265206e6f742070617274206f6620746869732077696c6c00000081525060200191505060405180910390fd5b603c600d546009540202600c54014211610fcf576040517f08c379a0000000000000000000000000000000000000000000000000000000008152600401808060200182810382526027815260200180610fe56027913960400191505060405180910390fd5b600560019054906101000a900460d01b90509056fe546573746f72207374696c6c20616c6976652c20636f6465206e6f742061636365737369626c65506572696f6420686173207061737365642c2077696c6c206973206e6f742065786563757461626c654f6e6c7920746573746f722063616e20686176652061636365737320746f20746869732066756e6374696f6e596f75206861766520616c72656164792070696e676564206f6e63652077697468696e2074686520706572696f64a265627a7a7231582007745d8891bc3d460e834ee62ede70f26051fc326dc30d55ef34bbef9bba57ae64736f6c6343000510003253756d6d6174696f6e206f6620746865207368617265206f6620656163682062656e65666963696172792073686f756c6420626520313030456163682062656e656669636961727920697320746f20726563656965766520736f6d652070657263656e74616765",
  "source": "pragma solidity >=0.4.22 <0.6.0;\n\ncontract EtherWills{\n    \n    address payable testor;\n    address payable[] beneficiaries;\n    uint256[] share;\n    mapping(address => uint256) division;\n    mapping(address => bool) hasExecuted;\n    bool created = false;\n    bytes6 code;\n    uint256 left = 100; \n    //encrypted private key\n    bytes32 private keystoreJSON;\n    //hash of secret\n    bytes32 private secretKey;\n    uint256 a = 0;\n    uint256 LastCheckIn = 0;\n    uint256 TimeLeft = 0;\n    uint256 WillCreationTime;\n    uint256 periodCheckIn;\n    \n    constructor(address payable _testor,address payable[] memory _beneficiary, uint256[] memory  _share,bytes32 json, bytes32 _secretKey,uint256 _periodCheckIn) public {\n        testor = _testor;\n        createWill(_beneficiary,_share,json,_secretKey,_periodCheckIn);\n    }\n\n    modifier onlyTestor{\n        require(msg.sender==testor,\"Only testor can have access to this function\");\n        _;\n    }\n    \n    function getCode() public view returns(bytes6){\n        require(division[msg.sender]!=0,\"You are not part of this will\");\n        require(now>(WillCreationTime+(a*periodCheckIn* 1 minutes)),\"Testor still alive, code not accessible\");\n        return code;\n    }\n    \n    //add Beneficiary to the contract\n    function setBeneficiary(address payable beneficiary) private {\n        require(testor!=beneficiary,\"testor cannot be beneficiary\");\n        beneficiaries.push(beneficiary);\n        hasExecuted[beneficiary] = false;\n    }\n    \n    function shareSum(uint256[] memory _shares) private pure returns(uint256){\n        uint256 sum = 0;\n        uint len = _shares.length;\n        for(uint i = 0; i<len;i++) {\n            sum+=_shares[i];\n        }\n        return sum;\n    }\n    \n    //Adding information to the will\n    function createWill(address payable[] memory _beneficiary, uint256[] memory  _share,bytes32 json, bytes32 _secretKey,uint256 _periodCheckIn) private{\n        //each beneficiary to get a some share\n        //Summation of the division of shares should be hundred\n        require(_beneficiary.length==_share.length,\"Each beneficiary is to receieve some percentage\");\n        require(shareSum(_share)==100,\"Summation of the share of each beneficiary should be 100\");\n        require(created==false,\"Will already created\");\n        uint256 len = _beneficiary.length;\n        for(uint256 i = 0;i<len;i++){\n            setBeneficiary(_beneficiary[i]);\n            division[_beneficiary[i]] = _share[i];\n        }\n        share = _share;\n        created = true;\n        secretKey = _secretKey;\n        keystoreJSON = json;\n        a = a + 1;\n        WillCreationTime = now;\n        periodCheckIn = _periodCheckIn;\n        //Creating a code consisting of hash whose length is 6\n        code = bytes6(keccak256(abi.encode(beneficiaries,share,secretKey,keystoreJSON,periodCheckIn)));\n    }\n    \n    //accept ether from WillStorage contract\n    function deposit() external payable onlyTestor{\n        require(now>TimeLeft+LastCheckIn,\"You have already pinged once within the period\");\n        require(now<WillCreationTime+(a*periodCheckIn* 1 minutes),\"Period has passed, will is not executable\");\n        LastCheckIn = now;\n        TimeLeft = WillCreationTime+(a*periodCheckIn * 1 minutes)-now;\n        a = a+1;\n    }\n    \n    function executeWill(bytes6 _code) external {\n        require(_code==code,\"Wrong code\");\n        require(division[msg.sender]!=0,\"You are not part of this will\");\n        require(hasExecuted[msg.sender]==false,\"Will already executed\");\n        hasExecuted[msg.sender] = true;\n    }\n\n    function WillDetails() public view returns(bytes32,bytes32,uint256){\n        require(division[msg.sender]!=0,\"You are not part of this will\");\n        require(hasExecuted[msg.sender]==true,\"Will not yet executed\");\n        return (keystoreJSON,secretKey,division[msg.sender]);\n    }\n    \n    function executed() public view returns(bool) {\n        require(division[msg.sender]!=0,\"You are not part of this will\");\n        return hasExecuted[msg.sender];\n    }\n\n    function deleteWill(bytes6 _code) public onlyTestor {\n        require(_code==code,\"You have entered the wrong code\");\n        selfdestruct(msg.sender);\n    }\n\n    function checkExecutable() public view returns(bool){\n        require(division[msg.sender]!=0,\"You are not part of this will\");\n        return (WillCreationTime+(a*periodCheckIn * 1 minutes))<now;\n    }\n\n    function queryWill() public view onlyTestor returns (address,uint256[] memory, address payable[] memory,uint256,bytes6,uint256,uint256){\n        uint256[] memory _share = share;\n        address payable[] memory _beneficiaries = beneficiaries;\n        return (testor, _share, _beneficiaries,((WillCreationTime+(a*periodCheckIn * 1 minutes))-now),code,a,periodCheckIn);\n    }\n}",
  "sourcePath": "/home/user/Documents/Blockchain projects/Wills/contracts/EtherWills.sol",
  "compiler": {
    "name": "solc",
    "version": "0.5.16+commit.9c3226ce.Emscripten.clang"
  },
  "schemaVersion": "3.0.23",
  "updatedAt": "2020-02-28T19:03:08.826Z",
  "devdoc": {
    "methods": {}
  },
  "userdoc": {
    "methods": {}
  }
}